:020000040000FA
:10800000A0AD0120A1820000D1820000D382000037
:10801000D5820000D7820000D98200000000000055
:10802000000000000000000000000000DB820000F3
:10803000DD82000000000000DF82000045CB000070
:10804000B1A70000C5A70000D9A70000EDA7000058
:1080500001A8000015A8000029A800003DA8000004
:1080600051A8000065A8000079A800008DA80000B4
:10807000A1A80000B5A80000C9A80000DDA8000064
:10808000F1A8000005A9000019A900002DA9000011
:1080900041A9000055A9000069A900007DA90000C0
:1080A00091A90000A5A90000B9A90000CDA9000070
:1080B000E1A90000F5A9000009AA00001DAA00001E
:1080C00031AA000049AA000061AA000079AA0000B4
:1080D00091AA0000A9AA0000C1AA0000D9AA000024
:1080E000F1AA000009AB000021AB000039AB000091
:1080F00051AB000069AB000081AB000099AB000000
:10810000B1AB0000C9AB0000E1AB0000F9AB00006F
:1081100011AC000029AC000041AC000059AC0000DB
:1081200071AC000089AC0000A1AC0000B9AC00004B
:10813000D1AC0000E9AC000001AD000019AD0000B9
:1081400031AD000049AD000061AD000079AD000027
:1081500091AD0000A9AD0000C1AD0000D9AD000097
:10816000F1AD000009AE000021AE000039AE000004
:1081700051AE000069AE000081AE000099AE000073
:10818000B1AE0000C9AE0000E1AE0000F9AE0000E3
:1081900011AF000029AF000041AF000059AF00004F
:1081A00071AF000089AF0000A1AF0000B9AF0000BF
:1081B000D1AF0000E9AF000001B0000019B000002D
:1081C00031B0000049B0000061B0000079B000009B
:1081D000E3820000E3820000E3820000E38200000B
:1081E000E3820000E3820000E3820000E3820000FB
:1081F000E3820000E3820000E3820000E3820000EB
:10820000E3820000E3820000E3820000E3820000DA
:10821000E3820000E3820000E3820000E3820000CA
:10822000E3820000E3820000E3820000E3820000BA
:10823000E3820000E3820000E3820000E3820000AA
:10824000E3820000E3820000E3820000E38200009A
:10825000E3820000E3820000E3820000E38200008A
:10826000E3820000E3820000E3820000E38200007A
:10827000E3820000E3820000E3820000E38200006A
:10828000DFF818D000F06CFE00F0DAF90048004783
:1082900045B60300AFF3008000F019FDA0AD01204A
:1082A00010484FF0770101600F484FF077010160EF
:1082B0000E484FF4885101600A484FF07601016082
:1082C00009484FF076010160094880470948004796
:1082D000FEE7FEE7FEE7FEE7FEE7FEE7FEE7FEE776
:1082E000FEE7FEE7040805400C08054000080540CD
:1082F000D9CC0000818200002DE9F04117460E46DE
:10830000054633B107FB0354E41B2046B047A542A2
:10831000FAD1A5F10800BDE8F0812DE9F05F05462E
:10832000002092469B4688460646814640241BE034
:10833000284641464746224600F0FEFB53465A4631
:10834000C01A914110D311461846224600F016F883
:108350002D1A67EB01084F4622460120002100F04C
:108360000DF817EB00094E41201EA4F10104DFDCDB
:10837000484631462A464346BDE8F09F202A04DBA2
:10838000203A00FA02F1002070479140C2F1200328
:1083900020FA03F3194390407047202A06DBCB17DD
:1083A000203A41FA02F043EAE07306E041FA02F3B0
:1083B000D040C2F1200291400843194670470000A6
:1083C0000048704758690600A0F14101192900D8FA
:1083D000203070470649074A0868504343F2390283
:1083E0001044086040087047014908607047000069
:1083F000280201206D4EC64110B5431A934209D29E
:108400008318881803E010F8011D03F8011D521E9F
:10841000F9D210BD40EA01039B0703D009E008C967
:10842000121F08C0042AFAD203E011F8013B00F839
:10843000013B521EF9D210BDD2B201E000F8012B6F
:10844000491EFBD270470022F6E710B513460A46D4
:1084500004461946FFF7F0FF204610BD421E12F8F1
:10846000013F002BFBD111F8013B02F8013B002B2F
:10847000F9D1704730B505462A460B4612F8010B74
:1084800013F8014B08B1A042F8D01CB1002802D06B
:108490006D1CF1E7284630BD10B5044604E00B78AA
:1084A00000F8013B03B1491C521EF8D2204610BD12
:1084B000CAB2401E10F8011F8A4202D00029F9D129
:1084C00000207047421C10F8011B0029FBD1801AC4
:1084D000704730B504460020034600E05B1C934221
:1084E00003D2E05CCD5C401BF8D030BD034611F8F0
:1084F000012B00F8012B002AF9D11846704730B53E
:1085000005460020034600E05B1C934205D2EC5C6C
:10851000C85C201A01D1002CF6D130BD0022CBB2AC
:108520000178994200D10246401C0029F8D110463A
:1085300070472DE9F0410E460546002400E0641C1A
:10854000285DFFF741FF0746305DFFF73DFF381A12
:1085500002D1295D0029F2D1BDE8F0812DE9F04773
:1085600091460F4680460446002614F8015B2DB163
:10857000FFF726FF0068405DC007F6D12B2D02D023
:108580002D2D18D0641E4A463946204600F0E4FAE4
:1085900027B13968A14201D1C7F8008071054FF0B9
:1085A00002040BD54042002803DD30F055FD046085
:1085B000A007BDE8F08746F48066E4E70028F8DA13
:1085C00030F04AFD04606FF00040F2E72DE9F05F03
:1085D00093460F4680460446002630F03DFDD0F815
:1085E0000090824614F8015B2DB1FFF7E9FE0068A8
:1085F000405DC007F6D12B2D02D02D2D1AD0641E60
:108600000021CAF800105A463946204600F0A4FA64
:10861000014627B13868A04201D1C7F80080DAF8D6
:108620000000022809D0CAF80090700505D548421C
:10863000BDE8F09F46F48066E2E70846F8E70000F0
:1086400070B5054C054D03E0206820448047241D8B
:10865000AC42F9D170BD0000FC7306004074060006
:108660002DE9F041074615460E46102031F0B6FCC4
:1086700004000AD06760C4E9026500F019FB0168D4
:10868000216004600020BDE8F0810120FBE72DE9B6
:10869000FE4F804681EA0300C00F0C46009021F097
:1086A000004123F00045B8EB0200A94105D2404645
:1086B000214690461C460B46024623F000401043DC
:1086C00047D0270DC7F30A00C3F30A510290401A9E
:1086D000019040286BDAC3F3130040F4801B00982C
:1086E000924620B10023D2EB030A63EB0B0B0198F7
:1086F0005946C0F140025046FFF740FE06460D467F
:1087000050465946019AFFF748FE10EB08006141B8
:10871000002487EA115284EAE7731A4340D0009A92
:1087200062B3019A012A4FEA075215DC001B61EB84
:1087300002014FF0004202EA0752CDE90042001C5C
:1087400041F5801132462B4600F046FB03B0BDE8F0
:10875000F08F40462146F9E7001B61EB0201001C47
:1087600041F5801300185B412018A2F5001747EB74
:10877000030140EAD570B6196D4111E06D084FEA6A
:10878000360645EAC0754FEA0752001B61EB02014D
:10879000001C41F5801149084FEA30000019514191
:1087A00032462B4603B0BDE8F04F00F006BB009800
:1087B000012240000023D0EB020263EBE07300983B
:1087C00021464FEAE074B8EB000061EB0401E9E7F1
:1087D00083F000435BE781F0004158E72DE9FE4F4D
:1087E00081EA030404F0004421F0004100944FF0BA
:1087F000000B23F0004350EA01045ED052EA030468
:108800005BD0C3F30A54C1F30A552C44A4F2F334E9
:108810000194A0FB0254C1F3130141F48011C3F38E
:10882000130343F4801301FB024400FB034E840A4C
:10883000970A44EA815447EA8357A4FB07680295E4
:108840008D0A05FB07854FEA932C04FB0C54270582
:10885000029D4FEA065847EA1637B5EB08056EEB5E
:10886000070C870E920E47EA811742EA8312A7FB94
:108870000201B6EB0B0164EB00042B0D43EA0C3351
:108880005E1844EB1C50DA465146E7FB0201C5F383
:1088900013044FEA0B3343EA14534FEA0432019CAA
:1088A00043EA0603A4F10C040294009CCDE900B451
:1088B00000F092FA03B0BDE8F08F00200146F9E71E
:1088C0002DE9F04D81EA030404F0004B21F000454E
:1088D00014464FF0000A23F0004150EA050220D070
:1088E00054EA01021DD0C5F30A570246C5F313032B
:1088F000C1F31300C1F30A5640F4801543F480130A
:10890000A7EB0608101BD64608F2FD3873EB0500EE
:1089100002D308F1010801E092185B41B8F1000FA1
:1089200003DA00200146BDE8F08D00204FF48011ED
:10893000064684460EE0171B73EB050705D3121B92
:1089400063EB050306434CEA010C49084FEA30008B
:1089500092185B4150EA0107EDD152EA030012D0B0
:1089600082EA040083EA0501084305D0101BAB41ED
:1089700006D20122002306E000224FF0004302E06D
:108980006FF0010253101AEB06004CEB085110EB8C
:108990000A0041EB0B01BDE8F04D00F00EBA0EB538
:1089A000C10F80EAE0700844CA07002140F2334357
:1089B0008DE80E000A460B4600F00EFA03B000BD2B
:1089C0000EB540F2334102910021CDE900110A4673
:1089D0000B4600F001FA03B000BD70B5C1F30A52B6
:1089E00001F000450024C1F3130140F2FF3341F4CC
:1089F00080119A4201DA002070BD40F233439A425E
:108A0000A2F2334203DC524200F096F800E09040BC
:108A10002C43F1D0404270BDC1F30A5210B5C1F3EE
:108A2000130140F2FF3341F480119A4201DA002031
:108A300010BD40F233439A42A2F2334203DC524269
:108A400000F07AF810BD904010BD00F0004230F008
:108A500000400AD0C10D01F56071C0F3160042EA72
:108A60000151C2084007114370470020014670477A
:108A700030B5041E71F1000404DB4FF000444042A5
:108A800064EB0101141E73F1000405DB1C464FF07A
:108A90000043524263EB04038B4208BF824230BD65
:108AA00030B5041E71F1000404DB4FF00044404275
:108AB00064EB0101141E73F1000405DB1C464FF04A
:108AC0000043524263EB0403994208BF904230BD19
:108AD00001F0004330B421F0004150EA010206D019
:108AE0000A0DA2F56072C1F31301002A02DC30BC4A
:108AF00000207047440F44EAC104C100E01830BCB4
:108B000000EBC25000F004B900F0F4B930B50B46E8
:108B1000014600202022012409E021FA02F59D42AD
:108B200005D303FA02F5491B04FA02F52844151E81
:108B3000A2F10102F1DC30BD202A04DB203A21FA47
:108B400002F00021704721FA02F3D040C2F1200266
:108B500091400843194670472DE9F05F824600783E
:108B6000002715468B460AF10104B946302801D08A
:108B70009DB113E014F8010B0127782803D0582881
:108B800001D045B10AE00DB1102D07D10027102505
:108B900014F8010B02E0082500E00A250026B04683
:108BA0000EE005FB080005FB06F1012701EB10466E
:108BB0001FFA80F8B6F5803F00D3B94614F8010BD0
:108BC000294600F0DFF90028EBDABBF1000F05D0F1
:108BD0000FB1641E00E05446CBF80040B9F1000F1D
:108BE00006D030F039FA02210160C81EBDE8F09FBE
:108BF00048EA0640FAE700000FB4002300B589B048
:108C00000CA900910B996FF00042CB601E4B0693AC
:108C10001E4B07930423CDE901321D4A08920246F8
:108C20006B46002000F050FA09B05DF814FB70B5F7
:108C300086B006464FF0FF300091CDE901010020DB
:108C400015460C4604903246694604A8FFF7D4FF47
:108C500002460498211825B108B1084600E02046D4
:108C60002860049800280DD0002A02DD0098884270
:108C700008D0081B0094CDE901043246694604A8D7
:108C8000FFF7BAFF06B070BD019300001F9300000C
:108C9000F9B403007CB50023CDE9003305466846EE
:108CA000FFF7C5FF6946284631F0E8F97CBD0000B2
:108CB00000487047DC020020034870470248001D4E
:108CC000011F8860001D70473402012070472DE9A4
:108CD000F0410646FFF7ECFF8046454613E016B12B
:108CE000E068B0420ED120682860D4E90101D8F8CC
:108CF00000708847204630F0D1F9D8F80000B8421B
:108D0000EBD100E025462C68002CE8D1BDE8F081CD
:108D10000029A8BF7047401C490008BF20F001008F
:108D2000704710B4B0FA80FC00FA0CF050EA01046D
:108D300004BF10BC704749B1CCF1200421FA04F4FF
:108D400011FA0CF118BF012121430843A3EB0C01D8
:108D5000CB1D4FEA00614FEA102042BF002010BC3B
:108D6000704700EBC35010440029A4BF10BC7047EB
:108D7000401C490008BF20F0010010BC704710B52E
:108D800041000CD0C0F3C751962908DC7E2909DCCC
:108D900006DB410204D000F0004040F07E5010BDE0
:108DA000002010BDC1F19604C4F1200100FA01F1C8
:108DB000E040FFF7ADFFA04010BD10B5141E73F1E9
:108DC000000408DA401C41F1000192185B411A438B
:108DD00001D120F0010010BD2DE9F04D92469B46D7
:108DE00011B1B1FA81F202E0B0FA80F2203290467D
:108DF000FFF7C4FA04460F4640EA0A0041EA0B01B5
:108E000053465A46084313D0114653EA010019D07D
:108E1000C8F140025046FFF78FFE05460E46504609
:108E200059464246FFF7AAFA084305D0012004E05C
:108E300020463946BDE8F08D0020054346EAE0763D
:108E40002C4337430A986305E40AA0EB080000228C
:108E5000FD0A44EA47540A3002D500200146E9E7FA
:108E6000010510196941DDE9084500196941BDE8AE
:108E7000F04DA2E7C1F30A52C1F3130140F2FF33F0
:108E800041F480119A4202DA00200146704740F214
:108E900033439A42A2F2334202DC5242FFF74CBE05
:108EA000FFF76CBA10B500F0004420F00040C20D8E
:108EB000C0F3160040F400007F2A07DA7D2A00DAAA
:108EC0007D22763A00FA02F1002008E0962A09DCB9
:108ED000A2F1760100FA01F1C2F19602D040FFF74B
:108EE00017FF01E0963A9040002C00D0404210BDA0
:108EF0000020704710B500F00EF8016919B100228A
:108F00000261884701E080688047AFF3008000007D
:108F100010B5AFF3008070B5FFF7D0FE04680546CA
:108F2000A4B9202031F05AF8040011D009490020DA
:108F30002C60C4E900010849A160207320616061D0
:108F40000649A06109B100F0FCF9E061204670BD5E
:108F5000AFF3008000000000118F0000000000004F
:108F6000064C074D06E0E06840F0010394E8070076
:108F700098471034AC42F6D3FFF786F9BC7306006D
:108F8000FC7306003A2800D2303820F02002412A33
:108F900001D3A2F13700884201D34FF0FF30704770
:108FA0002DE9FF4F087883B09946FF2805D0491C6A
:108FB0002D2804D00024002008E000200BE001242C
:108FC000F9E700EB800003EB4000491C0B78FF2B16
:108FD000F7D104B1404200230293147819461D468C
:108FE0002D2C01D02B2C04D1521C2D2C13D000245D
:108FF0000294AA461478FF2C0FD00A25A3FB05780B
:1090000001FB05814FF0000C03FB0C11521CE3190E
:109010004AEB0101EEE70124EAE7814453EA01004B
:1090200002D019F5C87F06DA03980021C0E90011C3
:1090300007B0BDE8F08F0025AE4E2F46DFF8B882AE
:10904000184600F09CF9CDE90001B9F1000002DA00
:10905000C9F1000400E004460023A74A1AEB030B01
:1090600042EB045A12E0E00707D02A46334638465E
:109070004146FFF7B3FB074688462A46334610466B
:109080001946FFF7ABFB05460E466410002CEAD1EB
:10909000DDE90001B9F1000F5A46534606DAFFF741
:1090A0000FFC3A464346FFF70BFC05E0FFF796FB43
:1090B0003A464346FFF792FB029A0AB181F000411B
:1090C000039AC2E90001B3E72DE9FF4F1F468DB0B7
:1090D000D7E901464FF0FF382E2045464FF00009F2
:1090E0000B90B9696D1C0E988847396A824688478B
:1090F0000028F6D1BAF1FF3F0AD024F4D064002E44
:1091000011DDBAF12B0F08D0BAF12D0F0BD102E00F
:10911000404611B08DE744F48064B9696D1C0E9827
:1091200088478246761E6946600501D52D2000E0FD
:109130002B208DF8000001F1010B0DF1200809E052
:10914000B9696D1C0E98884782460F9844F40074E4
:10915000761E0560002E02DDBAF1300FF0D00B99BB
:109160008A453ED144F0800406E00F99681CA9F1BD
:10917000010944F400740860B9696D1C761E0E98EC
:10918000884782463028F0D02BE00B998A4505D1DC
:10919000200603D444F08004761E18E0504631F0D7
:1091A000E1FB08B30DF11301761E44F400748B4506
:1091B00008D2AAF130000BF8010B200607D5A9F15F
:1091C000010003E0200602D409F101008146A00558
:1091D00002D50F99681C0860B9696D1C0E98884704
:1091E0008246002ED1DC53E0002E51DDBAF1650F2E
:1091F00002D0BAF1450F4BD1A00549D5B9696D1C14
:1092000024F44074761E0E9888478246002E0CDDAA
:109210002B2804D0BAF12D0F07D144F48074B9691A
:109220006D1C0E9888478246761EE00501D52D21DB
:1092300000E02B2108F8011BCDF82C8021E00DF176
:109240002901761E44F4007488450CD2AAF130003E
:1092500010F0FF0088F8000002D10B99884509D969
:1092600008F1010806E0E00501D5244801E042F2DA
:109270000F708146B9696D1C0E98884782460F9819
:109280000560002E04DD504631F06CFB0028D6D17D
:10929000F9690E988847FF208BF8000088F80000D5
:1092A0000020069007904B466A4608A906A8FFF7DB
:1092B00077FEA00502D46FF001002AE714F0240F16
:1092C0000AD0E00714D1DDE906123868031D3B60BF
:1092D0000068C0E900120BE0DDE90601FFF7F8FBCA
:1092E0000146E00704D13868021D3A600068016059
:1092F00028460EE7000014400000F03FF1D8FFFFC1
:10930000426842B1016811F8013B23B1521EC0E925
:109310000012184670470121C160881E70474268DC
:109320005AB1C368016843B983688B4205D0491EAE
:10933000521CC0E90012002070474FF0FF30704708
:10934000704710B5882030F049FE002801D0002178
:10935000017010BD802902D808B1017809B1002040
:109360007047012100F8081B704718B100F108028E
:10937000914201D0002070470021017070470EB566
:1093800040F2334202920022CDE900221346FFF759
:1093900023FD03B000BD70B58C1810F8015B15F00B
:1093A000070301D110F8013B2A1106D110F8012B57
:1093B00003E010F8016B01F8016B5B1EF9D12B077C
:1093C00005D40023521E0DD401F8013BFAE710F832
:1093D000013BCB1A921C03E013F8015B01F8015B1F
:1093E000521EF9D5A142D8D3002070BD10B5044655
:1093F0000A23202202490348FEF77EFF10BD000029
:109400005115030070A900202DE9F04102460B46DA
:109410000420002A4CD0002B4AD01F79012F47DCB2
:10942000244FBA421AD11F68C7F310011F7957B9E8
:1094300097891FFA81FC47EA0C079781D78947EA89
:109440001147D7811CE0178A1FFA81FC47EA0C07F5
:109450001782578A47EA1147578211E01F88C7F3DE
:1094600008011F7937B997891FFA81FC47EA0C0771
:10947000978105E0178A1FFA81FC47EA0C071782DB
:109480000024002502F120060FE001F001074FB192
:109490002F4605F1010C0CF0FF05D3F8088018F8F1
:1094A000077037554908671CFCB20029EDD1002030
:1094B000BDE8F0810000044010B502460420FAB176
:1094C000F1B1002313700C78538864F305135380B3
:1094D0004C78538864F3C71353808C78538864F3B3
:1094E00086135380CC78538864F3010353800C793E
:1094F000938864F382039380002382F8473000202E
:1095000010BD0146042011B101220A7000207047ED
:1095100010B50346042063B101290ADC21B95C8936
:1095200062F3C7145C8103E05C8962F3CF345C8131
:10953000002010BD10B502210E4804F0ADFC01283A
:1095400003D102210B4804F059FB0121094804F022
:10955000A3FC012803D10121064804F04FFB082198
:10956000044804F099FC012803D10821014804F0C3
:1095700045FB10BD00D0014010B5044804F094FC38
:10958000C4B22146024820F0F7FC10BD00D00140D3
:10959000480201207047704710B502210E4804F0C0
:1095A0007BFC012803D102210B4804F027FB012199
:1095B000094804F071FC012803D10121064804F098
:1095C0001DFB0821044804F067FC012803D1082191
:1095D000014804F013FB10BD00D4014010B504484D
:1095E00004F062FCC4B22146024820F0C5FC10BD64
:1095F00000D40140640301207047704710B5022178
:109600000E4804F049FC012803D102210B4804F064
:10961000F5FA0121094804F03FFC012803D101219A
:10962000064804F0EBFA0821044804F035FC012850
:1096300003D10821014804F0E1FA10BD00140240F2
:1096400010B5044804F030FCC4B22146024820F0B2
:1096500093FC10BD001402409C0501207047704728
:1096600070B5002100220024002300287ED0444D44
:109670002D7805F00705052D16D2DFE805F0030764
:109680000A0E11003F4D2D6805603CE03E4D05601F
:1096900039E04FF40045056035E03B4D056032E0B0
:1096A0004FF4004505602EE0354DDA352D68C5F3E1
:1096B000C013334D263DD5F800512A0F304DDA3511
:1096C0002D68C5F308212E4D263DD5F8005105F033
:1096D0001F0453B9651C2C4EB6FBF5F54E1C7543A3
:1096E000561CB5FBF6F505600CE0012B0AD1254DA3
:1096F0002E68651CB6FBF5F54E1C7543561CB5FB74
:10970000F6F5056000BF00BF1D4E263E0568366AAF
:10971000C6F30266F5404560194E263E0568366A76
:10972000C6F30256F5408560154E263E0568366A3A
:1097300006F00706F540C560114E263E0568366AFC
:10974000C6F30216F54005610D4E263E0568366AE1
:10975000C6F30226F5404561094E263E0568366A85
:10976000C6F30236F5408561054E00E006E0263E70
:109770000568366AC6F30246F540C56170BD000053
:10978000264005404400002000127A00014631B115
:1097900001290DD0022914D0032924D11AE0184A36
:1097A000127802F0010282F0010282F0010024E04E
:1097B000134A1278C2F3C00282F0010282F0010063
:1097C0001BE00F4A1278C2F3401282F0010282F0CD
:1097D000010012E00A4A1278C2F3801282F00102FC
:1097E00082F0010009E0064A521D127802F00102DF
:1097F00082F0010282F0010000BF00BF704700004C
:109800003C4005402DE9F04F0021002600278C4602
:1098100000220023884689468A460024DFF828B2C1
:10982000DBF800B1CBF3C015DFF81CB2DBF800B1F8
:109830004FEA1B76DFF810B2DBF800B1CBF3036719
:10984000DFF804B2DBF800B1CBF3035CDFF8F8B16A
:10985000DBF800B1CBF30821DFF8ECB1DBF800B1A5
:109860000BF01F02DFF8E0B1DBF804B14FEA1B7820
:10987000DFF8D4B1DBF804B1CBF30369DFF8C8B18A
:10988000DBF804B1CBF3035ADFF8BCB1DBF804B169
:10989000CBF30823DFF8B0B1DBF804B10BF01F0401
:1098A000F5BB02F1010BDFF8A4E1BEFBFBFB01F10C
:1098B000010E0BFB0EFB06F1010EBBFBFEFBC0F81D
:1098C00000B002F1010BDFF884E1BEFBFBFB01F10C
:1098D000010E0BFB0EFB07F1010EBBFBFEFBC0F8FC
:1098E00004B002F1010BDFF864E1BEFBFBFB01F108
:1098F000010E0BFB0EFB0CF1010EBBFBFEFBC0F8D7
:1099000008B004F1010BDFF844E1BEFBFBFB03F1FF
:10991000010E0BFB0EFB08F1010EBBFBFEFB00E092
:1099200022E0C0F80CB004F1010BDFF820E1BEFB2F
:10993000FBFB03F1010E0BFB0EFB09F1010EBBFB60
:10994000FEFBC0F810B004F1010BDFF800E1BEFB34
:10995000FBFB03F1010E0BFB0EFB0AF1010EBBFB3F
:10996000FEFBC0F814B06DE0012D6BD1DFF8E0B064
:10997000DBF800B002F1010EBBFBFEFB01F1010EB2
:109980000BFB0EFB06F1010EBBFBFEFBC0F800B0AB
:10999000DFF8BCB0DBF800B002F1010EBBFBFEFB50
:1099A00001F1010E0BFB0EFB07F1010EBBFBFEFBF1
:1099B000C0F804B0DFF898B0DBF800B002F1010E97
:1099C000BBFBFEFB01F1010E0BFB0EFB0CF1010ECC
:1099D000BBFBFEFBC0F808B0DFF874B0DBF800B0EA
:1099E00004F1010EBBFBFEFB03F1010E0BFB0EFBB2
:1099F00008F1010EBBFBFEFBC0F80CB0DFF850B065
:109A0000DBF800B004F1010EBBFBFEFB03F1010E1D
:109A10000BFB0EFB09F1010EBBFBFEFBC0F810B007
:109A2000DFF82CB0DBF800B004F1010EBBFBFEFB4D
:109A300003F1010E0BFB0EFB0AF1010EBBFBFEFB5B
:109A4000C0F814B0BDE8F08F0040054000127A0065
:109A50004400002008B501460022009200201B4A65
:109A600012884AF201531A43194BA3F8FE2391B905
:109A7000174A2632127802F00702022A01D1012089
:109A800018E0124A2932127822F00102521C0F4BC0
:109A900029331A700EE00D4A2932127822F00102A1
:109AA0000A4B29331A7000BF009A521C0092009A88
:109AB000052AF9D3054A12884FF6FE731A4042F47C
:109AC0002542034BA3F8FE2308BD0000FE430540DA
:109AD0000040054038B504460020009000251F488E
:109AE00000884AF2015108431D49A1F8FE0394B9C8
:109AF0001B482630007800F00700052801D1012519
:109B00001FE017482A30007820F00100401C14495B
:109B100081F82A0015E012482A30007820F0010070
:109B20000F4981F82A0000BF0220FFF72FFE0346ED
:109B30000098401C00900098B0F5805F01D2012B86
:109B4000F2D1064800884FF6FE71084040F42540E7
:109B50000349A1F8FE03284638BD0000FE43054036
:109B60000040054000283ED01F4909884AF20152B2
:109B700011431D4A11800178491E1C4AD2F8002168
:109B800061F31F721A490A600179491E174AD2F817
:109B9000002161F31B6216490A60017A491E134ACB
:109BA000D2F8002161F3175211490A608189491ED8
:109BB0000E4AD2F8002161F310220D490A60017C9F
:109BC000491E0A4AD2F8002161F304020749C1F88C
:109BD0000021B1F8FE134FF6FE72114041F4254109
:109BE000024AA2F8FE137047FE43054000400540BC
:109BF000004105400B4909884AF2025211430A4AC2
:109C0000A2F8FE131146098A60F303011182054987
:109C100009884FF6FD72114041F42541024AA2F82D
:109C2000FE137047FE430540004005400D4909887A
:109C30004AF2015211430C4AA2F8FE131146D1F820
:109C4000001160F3C711C2F800111146B1F8FE13FC
:109C50004FF6FE72114041F42541034AA2F8FE136B
:109C600070470000FE4305400040054010B586B037
:109C7000044600200590334800680490314840684D
:109C800003903048806802902E48C06801902E48AA
:109C90002C4908612D48007800F00700052801D004
:109CA000052C0ED12A4827490860C01248608860F8
:109CB000C86000BF0598401C05900598B0F5007F6E
:109CC000F8D3244800884AF2015108431F49263935
:109CD000A1F8FE03084690F8260064F3020081F81C
:109CE00026000846B0F8FE034FF6FE71084040F427
:109CF000254016492639A1F8FE030020059000BF33
:109D00000598401C05900598B0F5007FF8D30D49E3
:109D10000498086003984860029888600198C860B9
:109D20000948401E08610020059000BF0598401CAE
:109D300005900598B0F5007FF8D302F057FF06B004
:109D400010BD0000008004400100A5A5264005408C
:109D5000EEFAFFFFFE43054085B00021049138492B
:109D6000096803913649496802913549896801912A
:109D70003349C96800913349314A116100285DD0E7
:109D80003149097801F0070105290DD12F491160EA
:109D9000C91251609160D16000BF0499491C0491BF
:109DA0000499B1F5007FF8D3294909884AF2015294
:109DB0001143274A11808178C27841EA0211027961
:109DC00041EA0221427941EA0231827941EA0241C3
:109DD000427841EA0251027841EA026141EA0271A5
:109DE000194A263A11621A4909884FF6FE72114043
:109DF00041F42541144A263AA2F8FE1300210491A9
:109E000000BF0499491C04910499B1F5007FF8D36F
:109E10000B4A039911600299516001999160009970
:109E2000D1600849491E11610021049100BF0499C5
:109E3000491C04910499B1F5007FF8D305B070472F
:109E4000008004400100A5A526400540EEFAFFFF72
:109E5000FE43054038B504460020009000252A48FE
:109E600000884AF2015108432849A1F8FE034CBB7F
:109E700026482630007800F00700032801D101258C
:109E800036E023480068C0F3C01088B91F482A3064
:109E9000007800F0010008B9012529E01B483230A4
:109EA000007820F00100401C184981F832001FE0C2
:109EB00016483230007820F00100401C134981F828
:109EC000320015E011483230007820F001000F49CF
:109ED00081F8320000BF0120FFF758FC03460098CC
:109EE000401C00900098B0F5805F01D2012BF2D1A8
:109EF000054800884FF6FE71084040F425400349AC
:109F0000A1F8FE03284638BDFE4305400040054049
:109F10000041054058B3164909884AF201521143DD
:109F2000134A1180027812491231097862F3C7117D
:109F30000F4A1232117042780D491231097862F3DA
:109F400086110B4A12321170827809491231097850
:109F500062F30511064A12321170054909884FF65D
:109F6000FE72114041F42541024AA2F8FE137047E7
:109F7000FE4305400040054010B500BF00F15C0302
:109F800003EB81131B6823F003031478234300F1D0
:109F90005C0404EB8114236000BF00BF00F15C038C
:109FA00003EB81131B6823F00C03547843EA840409
:109FB00000F15C0303EB81131C6000BF00BF00F1E4
:109FC0005C0303EB81131B6823F01003947843EACE
:109FD000041400F15C0303EB81131C6000BF00BF9D
:109FE00000F15C0303EB81131B6823F02003D4789A
:109FF00043EA441400F15C0303EB81131C6000BFCF
:10A0000000BF00F15C0303EB81131B6823F04003E6
:10A01000147943EA841400F15C0303EB81131C60A0
:10A0200000BF00BF00F15C0303EB81131B6823F04A
:10A030008003547943EAC41400F15C0303EB8113F9
:10A040001C6000BF00BF00F15C0303EB81131B68C1
:10A0500023F44073947943EA042400F15C0303EB96
:10A0600081131C6000BF00BF00F15C0303EB811390
:10A070001B6823F48063D47943EA842400F15C03F1
:10A0800003EB81131C6000BF00BF00F15C0303EB16
:10A0900081131B6823F40063147A43EAC42400F19B
:10A0A0005C0303EB81131C6000BF00BF00F15C0385
:10A0B00003EB81131B6823F48053547A43EA04347E
:10A0C00000F15C0303EB81131C6000BF10BD0000B6
:10A0D000F0B503461546002200265F4800780028A8
:10A0E0006FD101205C4F3870DF69884027EA000695
:10A0F000002E67D0D86900F00100D8B1D1B1986CBA
:10A10000040C986E0A27B7EB104F13D3986EB4EB7C
:10A11000104F0FD909E0501C82B2B2F5A04F04D9FC
:10A1200000204D4F38700920F0BDD86900F00100C3
:10A130000028F0D1D86900F00200022820D10129BE
:10A140001ED0D3F88800040CD3F8A8000A27B7EB78
:10A15000104F15D3D3F8A800B4EB104F10D900223C
:10A1600009E0501C82B2B2F5A04F04D900203A4F4A
:10A1700038700920D8E7D86900F002000028F0D133
:10A18000D86900F00400042822D1022920D000223E
:10A19000D3F8C800040CD3F8E8000A27B7EB104F37
:10A1A00016D3D3F8E800B4EB104F11D90BE0501CD4
:10A1B00082B2B2F5A04F06D90020274F387009208F
:10A1C000B2E746E02AE0D86900F004000028EED1AA
:10A1D000D86900F00800082820D103291ED00022E9
:10A1E000D3F80801040CD3F828010A27B7EB104F65
:10A1F00014D3D3F82801B4EB104F0FD909E0501C49
:10A2000082B2B2F5A04F04D90020134F3870092054
:10A210008AE7D86900F008000028F0D14DB1012D7F
:10A2200012D1D86901278F4007F00F073843D86152
:10A230000AE0D86901278F404FF00F0C2CEA070C79
:10A2400000EA0C00D86100BF00BF0020024F387048
:10A250006AE7012068E700000700002070B50346A8
:10A26000002039B1012905D0022903D0032901D0EA
:10A27000042026E032B1012A0AD0022A10D0032A93
:10A280001CD113E05C6901258D402C435C6117E013
:10A290005C6901F110050126AE4034435C610FE0BA
:10A2A0009C6901258D402C439C6109E09C6901F16A
:10A2B00010050126AE4034439C6101E0042000BF3C
:10A2C00000BF70BD026861F30002026070470000C9
:10A2D00070B505460C46164601212846FFF7F2FFE9
:10A2E00005F15C0000EB8410006820F4805105F15A
:10A2F0005C0000EB8410016005F1400000EB84106D
:10A300007168016005F1440000EB8410B1680160E0
:10A3100000BF05F1480000EB841000686FF30900EE
:10A320003188084305F1480101EB8411086000BF42
:10A3300000BF718805F1480000EB8410006861F3EC
:10A340001F4005F1480101EB8411086000BF00BF08
:10A3500005F14C0000EB841000686FF30900B1892F
:10A36000084305F14C0101EB8411086000BF00BFF8
:10A3700005F14C0000EB841000682B490840F1897E
:10A3800040EA014105F14C0000EB8410016000BF80
:10A3900000BF05F1500000EB841000686FF313005C
:10A3A0007169084305F1500101EB8411086000BF99
:10A3B00000BF318B05F1500000EB8410006861F3A1
:10A3C0001F5005F1500101EB8411086000BF00BF70
:10A3D00005F1540000EB841000686FF31300F1697D
:10A3E000084305F1540101EB8411086000BF00BF70
:10A3F000318C05F1540000EB8410006861F31F50AC
:10A4000005F1540101EB8411086000BF05F158000B
:10A4100000EB84103169016006F1240221462846D0
:10A42000FFF7AAFD70BD0000FFFF00FC10B5094B4F
:10A43000984205D1084C04EB8103C3F8142807E0C7
:10A44000064B984204D1044C04EB8103C3F8242842
:10A4500010BD000000300540000001400034054000
:10A4600008B5002200920021094A116842F21072D8
:10A47000B1FBF2F106E0009100BF009A531E009379
:10A48000002AFAD1021EA0F10100F4D108BD00009B
:10A490004800002008B50122002100910D490968FB
:10A4A0000D4B994210D90B490968B1FBF3F206E054
:10A4B000009200BF00994B1E00930029FAD1011EA3
:10A4C000A0F10100F4D104E000BF011EA0F10100E1
:10A4D000FBD108BD48000020809698000149086023
:10A4E00070470000140401400349096860F300014B
:10A4F000014A1160704700000C040140012801D09E
:10A50000012200E000220349096862F30001014AC8
:10A510001160704704040140014604480068084087
:10A5200008B1012070470020FCE700001004014042
:10A5300004480068012804D143F210200149086052
:10A54000086070470004014070B5034600240026EF
:10A550003F20FFF7C3FF1E480068C0F300451C48BA
:10A56000006820F480301A4908600120FFF7BCFF22
:10A570001748001D006820F0700040301449091D84
:10A5800008601448186005E0601C84B2B4F5805F70
:10A5900000D909260E4808300068C0F300200028C2
:10A5A000F2D01020FFF79AFF0948001D006820F044
:10A5B00070000749091D08600020FFF795FF044857
:10A5C000006865F3104002490860304670BD000025
:10A5D00008040140785634120349096860F30711F2
:10A5E000014A11607047000008040140F0B50346BD
:10A5F0000C46002600253F20FFF770FF1F4800682B
:10A60000C0F300471D48006820F480301B490860F3
:10A610000120FFF769FF1948001D006820F0700055
:10A6200010301649091D08601C6005E0681C85B2E1
:10A63000B5F5805F00D90926104808300068C0F3DE
:10A6400000200028F2D01868A04200D00126102077
:10A65000FFF744FF0948001D006820F0700007491B
:10A66000091D08600020FFF73FFF0448006867F3FA
:10A670001040024908603046F0BD00000804014067
:10A6800040F223100249086043F21020086070472E
:10A690000004014070B504460125B4F5F82F04D23A
:10A6A0000FA02EF087FC284670BDFFF7E9FF0120C0
:10A6B000FFF724FF00BF4FF48070FFF72DFF012844
:10A6C000F9D12046FFF740FF054625B119220B4975
:10A6D0000BA02EF06FFCFFF72BFF2846E4E70000ED
:10A6E00063616E204E4F5420657261736520636F05
:10A6F000646520617265612E0A000000B4330500B4
:10A700004572726F722C2066756E633A2025732C29
:10A71000206C696E653A2025642E0A002DE9F04709
:10A7200005460F46904601262C4605EB080A4FF0D9
:10A730000009FFF7A5FF0120FFF7E0FE00BF4FF47F
:10A740008070FFF7E9FE0128F9D12846FFF7FCFEEB
:10A75000064626B12F220E490EA02EF02BFC0FE04C
:10A7600057F809102046FFF741FF06462EB1352263
:10A77000074908A02EF01EFC04E0241D09F104097D
:10A780005445EDD300BFFFF7D3FE3046BDE8F08758
:10A79000C33305004572726F722C2066756E633A82
:10A7A0002025732C206C696E653A2025642E0A00E2
:10A7B00010B50348006810B101490868804710BD12
:10A7C000DC06012010B50348406810B10149486813
:10A7D000804710BDDC06012010B50348806810B129
:10A7E00001498868804710BDDC06012010B5034888
:10A7F000C06810B10149C868804710BDDC0601205F
:10A8000010B50348006910B101490869804710BDBF
:10A81000DC06012010B50348406910B101494869C0
:10A82000804710BDDC06012010B50348806910B1D7
:10A8300001498869804710BDDC06012010B5034836
:10A84000C06910B10149C869804710BDDC0601200C
:10A8500010B50348006A10B10149086A804710BD6D
:10A86000DC06012010B50348406A10B10149486A6E
:10A87000804710BDDC06012010B50348806A10B186
:10A880000149886A804710BDDC06012010B50348E5
:10A89000C06A10B10149C86A804710BDDC060120BA
:10A8A00010B50348006B10B10149086B804710BD1B
:10A8B000DC06012010B50348406B10B10149486B1C
:10A8C000804710BDDC06012010B50348806B10B135
:10A8D0000149886B804710BDDC06012010B5034894
:10A8E000C06B10B10149C86B804710BDDC06012068
:10A8F00010B50348006C10B10149086C804710BDC9
:10A90000DC06012010B50348406C10B10149486CC9
:10A91000804710BDDC06012010B50348806C10B1E3
:10A920000149886C804710BDDC06012010B5034842
:10A93000C06C10B10149C86C804710BDDC06012015
:10A9400010B50348006D10B10149086D804710BD76
:10A95000DC06012010B50348406D10B10149486D77
:10A96000804710BDDC06012010B50348806D10B192
:10A970000149886D804710BDDC06012010B50348F1
:10A98000C06D10B10149C86D804710BDDC060120C3
:10A9900010B50348006E10B10149086E804710BD24
:10A9A000DC06012010B50348406E10B10149486E25
:10A9B000804710BDDC06012010B50348806E10B141
:10A9C0000149886E804710BDDC06012010B50348A0
:10A9D000C06E10B10149C86E804710BDDC06012071
:10A9E00010B50348006F10B10149086F804710BDD2
:10A9F000DC06012010B50348406F10B10149486FD3
:10AA0000804710BDDC06012010B50348806F10B1EF
:10AA10000149886F804710BDDC06012010B503484E
:10AA2000C06F10B10149C86F804710BDDC0601201E
:10AA300010B50448D0F8800018B10249D1F8800060
:10AA4000804710BDDC06012010B50448D0F8840012
:10AA500018B10249D1F88400804710BDDC060120FE
:10AA600010B50448D0F8880018B10249D1F8880020
:10AA7000804710BDDC06012010B50448D0F88C00DA
:10AA800018B10249D1F88C00804710BDDC060120C6
:10AA900010B50448D0F8900018B10249D1F89000E0
:10AAA000804710BDDC06012010B50448D0F89400A2
:10AAB00018B10249D1F89400804710BDDC0601208E
:10AAC00010B50448D0F8980018B10249D1F89800A0
:10AAD000804710BDDC06012010B50448D0F89C006A
:10AAE00018B10249D1F89C00804710BDDC06012056
:10AAF00010B50448D0F8A00018B10249D1F8A00060
:10AB0000804710BDDC06012010B50448D0F8A40031
:10AB100018B10249D1F8A400804710BDDC0601201D
:10AB200010B50448D0F8A80018B10249D1F8A8001F
:10AB3000804710BDDC06012010B50448D0F8AC00F9
:10AB400018B10249D1F8AC00804710BDDC060120E5
:10AB500010B50448D0F8B00018B10249D1F8B000DF
:10AB6000804710BDDC06012010B50448D0F8B400C1
:10AB700018B10249D1F8B400804710BDDC060120AD
:10AB800010B50448D0F8B80018B10249D1F8B8009F
:10AB9000804710BDDC06012010B50448D0F8BC0089
:10ABA00018B10249D1F8BC00804710BDDC06012075
:10ABB00010B50448D0F8C00018B10249D1F8C0005F
:10ABC000804710BDDC06012010B50448D0F8C40051
:10ABD00018B10249D1F8C400804710BDDC0601203D
:10ABE00010B50448D0F8C80018B10249D1F8C8001F
:10ABF000804710BDDC06012010B50448D0F8CC0019
:10AC000018B10249D1F8CC00804710BDDC06012004
:10AC100010B50448D0F8D00018B10249D1F8D000DE
:10AC2000804710BDDC06012010B50448D0F8D400E0
:10AC300018B10249D1F8D400804710BDDC060120CC
:10AC400010B50448D0F8D80018B10249D1F8D8009E
:10AC5000804710BDDC06012010B50448D0F8DC00A8
:10AC600018B10249D1F8DC00804710BDDC06012094
:10AC700010B50448D0F8E00018B10249D1F8E0005E
:10AC8000804710BDDC06012010B50448D0F8E40070
:10AC900018B10249D1F8E400804710BDDC0601205C
:10ACA00010B50448D0F8E80018B10249D1F8E8001E
:10ACB000804710BDDC06012010B50448D0F8EC0038
:10ACC00018B10249D1F8EC00804710BDDC06012024
:10ACD00010B50448D0F8F00018B10249D1F8F000DE
:10ACE000804710BDDC06012010B50448D0F8F40000
:10ACF00018B10249D1F8F400804710BDDC060120EC
:10AD000010B50448D0F8F80018B10249D1F8F8009D
:10AD1000804710BDDC06012010B50448D0F8FC00C7
:10AD200018B10249D1F8FC00804710BDDC060120B3
:10AD300010B50448D0F8000118B10249D1F800015B
:10AD4000804710BDDC06012010B50448D0F804018E
:10AD500018B10249D1F80401804710BDDC0601207A
:10AD600010B50448D0F8080118B10249D1F808011B
:10AD7000804710BDDC06012010B50448D0F80C0156
:10AD800018B10249D1F80C01804710BDDC06012042
:10AD900010B50448D0F8100118B10249D1F81001DB
:10ADA000804710BDDC06012010B50448D0F814011E
:10ADB00018B10249D1F81401804710BDDC0601200A
:10ADC00010B50448D0F8180118B10249D1F818019B
:10ADD000804710BDDC06012010B50448D0F81C01E6
:10ADE00018B10249D1F81C01804710BDDC060120D2
:10ADF00010B50448D0F8200118B10249D1F820015B
:10AE0000804710BDDC06012010B50448D0F82401AD
:10AE100018B10249D1F82401804710BDDC06012099
:10AE200010B50448D0F8280118B10249D1F828011A
:10AE3000804710BDDC06012010B50448D0F82C0175
:10AE400018B10249D1F82C01804710BDDC06012061
:10AE500010B50448D0F8300118B10249D1F83001DA
:10AE6000804710BDDC06012010B50448D0F834013D
:10AE700018B10249D1F83401804710BDDC06012029
:10AE800010B50448D0F8380118B10249D1F838019A
:10AE9000804710BDDC06012010B50448D0F83C0105
:10AEA00018B10249D1F83C01804710BDDC060120F1
:10AEB00010B50448D0F8400118B10249D1F840015A
:10AEC000804710BDDC06012010B50448D0F84401CD
:10AED00018B10249D1F84401804710BDDC060120B9
:10AEE00010B50448D0F8480118B10249D1F848011A
:10AEF000804710BDDC06012010B50448D0F84C0195
:10AF000018B10249D1F84C01804710BDDC06012080
:10AF100010B50448D0F8500118B10249D1F85001D9
:10AF2000804710BDDC06012010B50448D0F854015C
:10AF300018B10249D1F85401804710BDDC06012048
:10AF400010B50448D0F8580118B10249D1F8580199
:10AF5000804710BDDC06012010B50448D0F85C0124
:10AF600018B10249D1F85C01804710BDDC06012010
:10AF700010B50448D0F8600118B10249D1F8600159
:10AF8000804710BDDC06012010B50448D0F86401EC
:10AF900018B10249D1F86401804710BDDC060120D8
:10AFA00010B50448D0F8680118B10249D1F8680119
:10AFB000804710BDDC06012010B50448D0F86C01B4
:10AFC00018B10249D1F86C01804710BDDC060120A0
:10AFD00010B50448D0F8700118B10249D1F87001D9
:10AFE000804710BDDC06012010B50448D0F874017C
:10AFF00018B10249D1F87401804710BDDC06012068
:10B0000010B50448D0F8780118B10249D1F8780198
:10B01000804710BDDC06012010B50448D0F87C0143
:10B0200018B10249D1F87C01804710BDDC0601202F
:10B0300010B50448D0F8800118B10249D1F8800158
:10B04000804710BDDC06012010B50448D0F884010B
:10B0500018B10249D1F88401804710BDDC060120F7
:10B0600010B50448D0F8880118B10249D1F8880118
:10B07000804710BDDC06012010B50448D0F88C01D3
:10B0800018B10249D1F88C01804710BDDC060120BF
:10B0900070B50446042594B324F0D0FB0020194970
:10B0A000086021781848008861F3C30016490880B9
:10B0B0000846008820F00400088061781248008863
:10B0C00061F3410010490880607810490870607889
:10B0D00050B99FED0F0A0F4880ED000A9FED0E0A50
:10B0E0000E4880ED000A09E09FED0D0A094880ED49
:10B0F000000A9FED0C0A094880ED000A0025284649
:10B1000070BD00000080944200A4044008000020AC
:10B110008CFF33490C0000206666DC4110000020E3
:10B1200071A93B45295CDF4100B502460B4600F0A2
:10B1300027F9012B07D10948008802F01F010843B5
:10B140000649088006E00548008802F01F01884390
:10B150000249088000F09AF8002000BDF43B054049
:10B1600010B502460548102404FB02031868084085
:10B1700008B1012010BD0020FCE7000000380540A8
:10B1800070B504460025532C01DD002070BD04EB92
:10B190004402084B03EB8202518804EB440203EBA8
:10B1A00082025078FFF7DCFF05460DB10120EDE784
:10B1B0000020EBE7B02F0500F0B505460F4613461B
:10B1C000002400F0DDF800BF57E00120A040384027
:10B1D000002850D02C4800EB851000EB84022A4850
:10B1E000801C00EB851000EB84065978108861F311
:10B1F0008E3010809978108861F30C301080D978E7
:10B20000108861F3492010801979108861F3861045
:10B2100010809979108861F3820010805979108824
:10B2200061F305101080187820B101280BD0022896
:10B230001AD112E0108820F400401080108820F00D
:10B240000200108011E0108820F400401080108867
:10B2500020F00200801C108007E0108820F40040DD
:10B2600000F50040108000E000BF00BFD9793088B1
:10B2700061F308203080601CC4B2102CA5D300F00C
:10B2800005F80020F0BD0000003C05404FF42540CB
:10B290000149088070470000FC3B054010B502469C
:10B2A0000448102404FB0203188808431880002077
:10B2B00010BD00000A38054010B50446532C01DDCE
:10B2C000012010BD04EB4402054B03EB82025188C0
:10B2D00004EB440203EB82025078FFF7DFFFF0E754
:10B2E000B02F05000246044800EB021318880843FB
:10B2F00018800020704700000838054010B504464B
:10B30000532C01DD012010BD04EB4402054B03EB7F
:10B310008202518804EB440203EB82025078FFF76B
:10B32000E1FFF0E7B02F0500F0B504460D461646E4
:10B330001F46002300F024F8002319E00120984064
:10B34000284098B10D48402101FB0400042101FB75
:10B350000302108866F305001080012F01D101213E
:10B3600000E00021108861F308201080581CC3B24F
:10B37000102BE3D3FFF78AFF0020F0BD023C05400D
:10B380004AF201500149088070470000FC3B05402B
:10B39000094A0A4B1A61012904D11A4612688243EC
:10B3A0001A6004E0054A12680243044B1A60024A1C
:10B3B000521E024B1A6170470100A5A5008004408F
:10B3C000012905D1054A52688243044B5A6004E0C2
:10B3D000024A52680243014B5A60704700800440A1
:10B3E000012905D1054A92688243044B9A6004E022
:10B3F000024A92680243014B9A6070470080044001
:10B40000012905D1054AD2688243044BDA6004E081
:10B41000024AD2680243014BDA6070470080044060
:10B4200010B50F4800884AF2025108430D49A1F8AF
:10B43000FE03CF200A49091D087010200849113168
:10B440000870074800884FF6FD71084040F4254019
:10B450000449A1F8FE030120FFF702F8002010BD07
:10B46000FE43054000400540002200214AF2025000
:10B470000F4B188000BF491C0E48008820F4004084
:10B4800000F500400B4BC03BA3F8C0000948028800
:10B49000B1F5805F01D0002AEDD14FF42540044B77
:10B4A0001880B1F5805F01D3092070470020FCE7C8
:10B4B000FE430540C040054008B50146002000900D
:10B4C000002209B9042008BD2048008800906A467F
:10B4D0001088C0F3803008701088C0F34030487086
:10B4E0001088C0F3003088701088C0F3C020C87086
:10B4F0001088C0F3802008711088C0F34020487184
:10B500001088C0F3002088711088C0F3C010C87183
:10B510001088C0F3801008721088C0F34010487281
:10B520001088C0F3001088721088C0F30010C87231
:10B530001088C0F3800008731088C0F3400048737F
:10B54000108800F0010088730020BCE7C04005406F
:10B55000F0B5014600250024002600220023042027
:10B56000002966D0CF6D07F47F07B7F5800F1ED195
:10B5700001F15003DF79BF06BF0A93F806C007EB5D
:10B580000C2793F805C007EB0C056F1CBC029F7AD3
:10B590003F0193F809C047EA1C1CC1F820C05F7A3C
:10B5A00007F00F0C012707FA0CF7CF6234E001F126
:10B5B0005002177ABF073F0D92F807C007EB8C07C0
:10B5C00092F806C007EB9C155779BF077F0F92F8DA
:10B5D00004C007EBDC166F1C06F1020C07FA0CF432
:10B5E000577A07F00F070A2F01D1640005E0577A58
:10B5F00007F00F070B2F00D1A400977A3F0192F8B4
:10B6000009C047EA1C1CC1F820C0577A07F00F0C8C
:10B61000012707FA0CF7CF628C62D1E90A7C4FEA66
:10B620005C2C07FB0CF70F634FF4007CC1F834C0AF
:10B630000020F0BD01460879704770B505460E46FA
:10B6400004240DB306B3EE60284623F0A3FA0446A3
:10B650000CB1204670BD284623F00DFA04460CB10B
:10B660002046F7E7284623F0D1F904460CB12046DE
:10B67000F0E7284623F03EFC04460CB12046E9E7FB
:10B68000284623F0B3FA04462046E3E72DE9F04FBD
:10B6900087B004460F4615469846C1466A4800687A
:10B6A000C0084FF47A71B0FBF1F0109900FB01FA79
:10B6B000CDF810A02046FFF7BDFF83460020039081
:10B6C00002901CB9042007B0BDE8F08FB8F1000F5C
:10B6D00000D02DB9606940F0006060610420F2E79D
:10B6E000002060617919206B814205D9606940F0C2
:10B6F000007060610420E6E7A069012800D07F02A5
:10B7000004F138024FF40071206800F03DFE064657
:10B710000EB13046D7E7ADF816504FF40070ADF8D3
:10B7200014000E208DF81A0001208DF81900012D4B
:10B7300000D900E000208DF81800012D01D9022069
:10B7400000E000208DF81B0005A9206800F084F9B6
:10B7500006460EB13046B6E7BBF1010F10D1A06826
:10B7600070B1A068006858B14FF6FF7000EA45203C
:10B770000090A3681979226818684B4623F0DEFA16
:10B78000012D09D10120206104F1380239462068D9
:10B7900000F02EFE064608E00220206104F1380287
:10B7A0003946206800F058FE06460EB130468AE75A
:10B7B000BBF1000F25D122E04FF40061206800F0BA
:10B7C000C6F903902021206800F0B4F90290039894
:10B7D00001280ED1029801280BD14FF4007249467E
:10B7E000206800F045FB681E85B2CDF810A009F571
:10B7F00000790498411E049108B9092063E7002DDF
:10B80000DAD1CDF810A009E00221206800F092F909
:10B81000012800D105E00498401E049004980028F7
:10B82000F2D100BF049808B909204CE70221206832
:10B8300000F002F94FF40041206800F07BF9012884
:10B8400000D1012630463EE7480000202DE9F04FA8
:10B8500087B00446884615469946CA46754800682A
:10B860003221B0FBF1F04FF47A71B0FBF1F0109996
:10B8700000FB01F704972046FFF7DCFE834600201B
:10B88000039002901CB9042007B0BDE8F08FB9F115
:10B89000000F00D02DB9606940F0006060610420A5
:10B8A000F2E70020606108EB0501206B814205D9B9
:10B8B000606940F0007060610420E5E704F138023F
:10B8C0004FF40071206800F05FFD06460EB130466F
:10B8D000DAE7ADF816504FF40070ADF814000E2002
:10B8E0008DF81A0000208DF81900012D01D90120D2
:10B8F00000E000208DF81800012D01D9022000E0A1
:10B9000000208DF81B0005A9206800F0A5F8064668
:10B910000EB13046B8E7A069012801D04FEA4828A7
:10B92000BBF1010F10D1A06870B1A068006858B1D8
:10B930004FF6FF7000EA45200090A368197922684D
:10B940001868534623F068FA012D07D104F1380234
:10B950004146206800F0B4FD064606E004F13802D6
:10B960004146206800F0E0FD06460EB130468BE708
:10B97000BBF1000F24D121E04FF48061206800F07A
:10B98000E6F803901021206800F0D4F802900398A4
:10B9900001280DD1029801280AD14FF400725146B6
:10B9A000206800F0D1FB681E85B204970AF5007A82
:10B9B0000498411E049108B9092065E7002DDBD1E8
:10B9C000049714E04FF48011206800F0C0F8039051
:10B9D0000221206800F0AEF802900398012803D1FC
:10B9E0000298012800D105E00498401E04900498B4
:10B9F0000028E7D100BF049808B9092044E70221D4
:10BA0000206800F019F83946204623F0ABFA0646C4
:10BA10000EB1304638E74FF40041206800F08AF854
:10BA2000012800D130E71021206800F005F800203F
:10BA30002AE700004800002002460420044B9A42F6
:10BA400002D0044B9A4201D11186002070470000B9
:10BA500000FC06400000074078B50246002400259F
:10BA600000950420314DAA4202D0314DAA425BD14B
:10BA7000002959D00020CD7935B1012D0FD0022DEC
:10BA800019D0032D32D124E0BDF8005025F0200557
:10BA90000095BDF8005025F00205009528E0BDF89E
:10BAA000005025F0200520350095BDF8005025F008
:10BAB000020500951CE04C88BDF8005025F02005DB
:10BAC00020350095BDF8005025F00205AD1C00950D
:10BAD0000EE0BDF8005025F0200520350095BDF89A
:10BAE000005025F00205AD1C009501E0042000BFC8
:10BAF00000BFC8B9BDF8005025F0010500954E798A
:10BB0000BDF8005066F3041500950E79BDF800509D
:10BB100066F3830500958D7982F82E50D4800D88C8
:10BB200095806B461D88958178BD000000FC06401D
:10BB3000000007400246108E084008B101207047FF
:10BB40000020FCE7024602F1100040587047024610
:10BB5000506A084008B1012070470020FCE700004F
:10BB60002DE9F84305460C460020009080464E48DB
:10BB700000686421B0FBF1F74FF004090026284665
:10BB800023F0D2FF0646002E7ED095F82F0020F03D
:10BB90000100401C85F82F0005E00098411C009131
:10BBA000B84200D905E095F82F0000F00100002808
:10BBB000F3D100BF0098B84271D23C48006AC0F38C
:10BBC00002510120884038490968B1FBF0F8384932
:10BBD000404623F061FFA98D60F30F21A985A88D50
:10BBE00020F00400001DA885A88D20F00100401C55
:10BBF000A88595F8290020F00100401C85F829004F
:10BC000040F27F106886E886F720288640F2F71019
:10BC1000A886002C40D0206810B1206800882887B2
:10BC20006068B8B1606800683060606840687060E3
:10BC300060688068B0606068C068F06060680069D3
:10BC4000306160684069706160688069B061606897
:10BC5000C069F061A06810B1A06800886887E068DA
:10BC6000D0B1E06800683062E06841687162E06805
:10BC70008168B162E068C168F162E06801693163BE
:10BC8000E0688169B16301E00BE008E0E0684169C8
:10BC90007163E068C169F1634FF0000901E04FF0A2
:10BCA00009094846BDE8F8834800002000400540E7
:10BCB000801A060070B50446204623F035FF05467D
:10BCC000002D7DD0208E00F0010040B1208E20F0AC
:10BCD0000100401C2086286808B128688047208E13
:10BCE000C0F3400040B1208E20F00200801C20866E
:10BCF000686808B168688047208EC0F3800040B152
:10BD0000208E20F00400001D2086A86808B1A868D5
:10BD10008047208EC0F3001040B1208E20F010002C
:10BD200010302086E86808B1E8688047208EC0F3AC
:10BD3000401040B1208E20F020002030208628695D
:10BD400008B128698047208EC0F3801040B1208E52
:10BD500020F0400040302086686908B1686980475B
:10BD6000208EC0F3C01040B1208E20F080008030C3
:10BD70002086A86908B1A8698047208EC0F30020FA
:10BD800048B1208E20F4807000F580702086E8692C
:10BD900008B1E8698047608E00F0010040B1608E14
:10BDA00020F00100401C6086286A08B1286A80479C
:10BDB000608EC0F3400050B1608E20F0020000E0C1
:10BDC00054E0801C6086686A08B1686A8047608EAB
:10BDD000C0F3800040B1608E20F00400001D60863A
:10BDE000A86A08B1A86A8047608EC0F3C00040B15D
:10BDF000608E20F0080008306086E86A08B1E86AC2
:10BE00008047608EC0F3001040B1608E20F01000BB
:10BE100010306086286B08B1286B8047608EC0F3B5
:10BE2000801040B1608E20F0400040306086A86BEA
:10BE300008B1A86B8047608EC0F3401040B1608E9F
:10BE400020F0200020306086686B08B1686B804766
:10BE5000608EC0F3002048B1608E20F4807000F541
:10BE600080706086E86B08B1E86B804770BD0000A9
:10BE70002DE9F04103461546002200240026042047
:10BE800021B3134FBB4202D0124FBB421ED105F06B
:10BE90000307DFB903F1200615E034689446521C0D
:10BEA00001F80C40C4F307281746521C01F807801C
:10BEB000C4F307481746521C01F80780270E944622
:10BEC000521C01F80C70AA42E7D30020BDE8F081B3
:10BED00000FC06400000074038B5024604204B4CE9
:10BEE000A24202D04A4CA2427DD100297BD0002040
:10BEF0004C7A0A2C64D2DFE804F005394F15272864
:10BF00003A503B3CBDF8004024F003040094BDF8D7
:10BF1000004024F008040094BDF8004024F0100410
:10BF200000944FE0BDF8004024F00304641C00942A
:10BF3000BDF8004024F0080408340094BDF8004027
:10BF400024F0100400943DE000BFBDF8004024F050
:10BF50000304A41C0094BDF8004024F008040094DD
:10BF6000BDF8004024F0100400942BE000BF00BF97
:10BF700000BFBDF8004024F00304A41C0094BDF8E9
:10BF8000004024F0080408340094BDF8004024F078
:10BF900010041034009415E000BFBDF8004024F0F8
:10BFA0000304E41C0094BDF8004024F008040834A5
:10BFB0000094BDF8004024F010041034009401E017
:10BFC000042000BF00BF70B9BDF8004024F0040495
:10BFD00000940D7ABDF8004065F3871400940D7845
:10BFE000BDF8004000E00FE065F30D2400948D7A69
:10BFF000BDF8004065F34514009402F108034C6855
:10C000001C606B461C88D48138BD000000FC0640D3
:10C010000000074002460420174B9A4202D0174BFB
:10C020009A4227D1002071B1012918D002291ED1CE
:10C0300012F8283F23F020031370137823F0020333
:10C0400002F8283915E012F8283F23F02003137076
:10C05000137823F002039B1C02F8283909E092F8B8
:10C06000283023F02003203382F8283001E0042018
:10C0700000BF00BF7047000000FC06400000074002
:10C080002DE9F04104460D4600260427124884425B
:10C0900002D0124884421BD11148006AC0F30251F9
:10C0A000012088400F490968B1FBF0F6A08D20F00F
:10C0B0000400A0852946304623F0EEFCA18D60F3F4
:10C0C0000F21A185A08D20F00400001DA085002770
:10C0D0003846BDE8F081000000FC06400000074043
:10C0E0000040054048000020084A904206D1084A16
:10C0F000126861F34102064B1A6005E0044A1268B7
:10C1000061F3C302024B1A607047000000FC064056
:10C110000454054010B502460420094B9A4202D04F
:10C12000084B9A420BD1012901D1012300E00023E1
:10C1300092F8284063F3820482F82840002010BD62
:10C1400000FC064000000740F0B5034615460022FB
:10C1500000240026042051B3154FBB4202D0154FD6
:10C16000BB4224D105F003070FBB03F120061BE0FF
:10C170001746521CCC5D1746521CCF5D4FF47F4CC6
:10C180000CEA07273C441746521CCF5D4FF47F0C46
:10C190000CEA07473C441746521CCF5D4FF07F4CDA
:10C1A0000CEA07673C443460AA42E1D30020F0BDAA
:10C1B00000FC06400000074070B504460D462946C5
:10C1C000204611F029FF08B1012070BD0020FCE7D6
:10C1D00070B504460D462946204602F0DBFC08B146
:10C1E000012070BD0020FCE7FEB506460F46144650
:10C1F000042500200090019002901648864202D04B
:10C200001548864224D11CB3304622F0E5FF05468E
:10C21000F5B929208DF8000047F480100190042022
:10C220008DF8090000208DF80A008DF80800694695
:10C230003046FFF751FE054655B92146304622F0FB
:10C2400067FF054625B9206800F0004000B90525C4
:10C250002846FEBD00FC064000000740FEB504462F
:10C260000E461746042500200090019002901348C6
:10C27000844202D0124884421DD1204622F0ACFFF5
:10C280000546C5B906208DF80000019601208DF8FD
:10C29000090000208DF80A008DF808006946204644
:10C2A000FFF71AFE054635B942F2107239462046AC
:10C2B00022F0D8FE05462846FEBD000000FC0640E0
:10C2C000000007403EB50446042500200090019080
:10C2D00002901148844202D0104884421AD120466C
:10C2E00022F07AFF0546ADB900208DF800000190DC
:10C2F0008DF809008DF80A008DF80800694620467F
:10C30000FFF7EAFD05462DB942F21071204622F0F2
:10C3100091FF054628463EBD00FC06400000074050
:10C32000FEB504460E4617460425002000900190F5
:10C3300002901348844202D0124884421ED1204603
:10C3400022F04AFF0546CDB90D208DF800003004DB
:10C35000019001208DF8090000208DF80A008DF869
:10C36000080069462046FFF7B7FD054635B942F299
:10C3700010723946204622F075FE05462846FEBD5D
:10C3800000FC064000000740FEB504460E46174676
:10C39000042500200090019002901348844202D0AE
:10C3A000124884421DD1204622F016FF0546C5B929
:10C3B00010208DF80000019601208DF80900002062
:10C3C0008DF80A008DF8080069462046FFF784FDC5
:10C3D000054635B942F210723946204622F042FE37
:10C3E00005462846FEBD000000FC06400000074050
:10C3F000FEB504460E461746042500200090019025
:10C4000002901348844202D0124884421DD1204633
:10C4100022F0E2FE0546C5B911208DF80000019614
:10C4200001208DF809008DF80A0000208DF8080021
:10C4300069462046FFF750FD054635B942F21072B5
:10C440003946204622F00EFE05462846FEBD000075
:10C4500000FC064000000740FEB504460E461746A5
:10C46000042500200090019002901348844202D0DD
:10C47000124884421DD1204622F0AEFE0546C5B9C1
:10C4800012208DF80000019601208DF809008DF82A
:10C490000A0000208DF8080069462046FFF71CFDC1
:10C4A000054635B942F210723946204622F0DAFDCF
:10C4B00005462846FEBD000000FC0640000007407F
:10C4C000FEB504460E461746042500200090019054
:10C4D00002901348844202D0124884421DD1204663
:10C4E00022F07AFE0546C5B918208DF800000196A5
:10C4F00001208DF809008DF80A0000208DF8080051
:10C5000069462046FFF7E8FC054635B942F210724D
:10C510003946204622F0A6FD05462846FEBD00000D
:10C5200000FC064000000740FEB504460E461746D4
:10C53000042500200090019002901348844202D00C
:10C54000124884421DD1204622F046FE0546C5B958
:10C5500019208DF80000019601208DF809008DF852
:10C560000A0000208DF8080069462046FFF7B4FC59
:10C57000054635B942F210723946204622F072FD66
:10C5800005462846FEBD000000FC064000000740AE
:10C59000FEB504460E46042500200090019002904E
:10C5A0001248844202D0124884421CD1204622F014
:10C5B00013FE0546BDB902208DF800000020019051
:10C5C00003208DF8090000208DF80A008DF808007E
:10C5D00069462046FFF780FC054625B931462046CE
:10C5E00022F06AFD05462846FEBD000000FC06401C
:10C5F00000000740FEB504460E46042500200090CA
:10C60000019002901248844202D0124884421CD108
:10C61000204622F0E1FD0546BDB903208DF800005B
:10C620000020019008208DF8090000208DF80A00F4
:10C630008DF8080069462046FFF74EFC054625B9EF
:10C640003146204622F082FD05462846FEBD000008
:10C6500000FC064000000740FEB504460E461746A3
:10C66000042500200090019002901348844202D0DB
:10C67000124884421DD1204622F0AEFD0546C5B9C0
:10C6800037208DF80000019601208DF80900002068
:10C690008DF80A008DF8080069462046FFF71CFC5B
:10C6A000054635B942F210723946204622F0DAFCCE
:10C6B00005462846FEBD000000FC0640000007407D
:10C6C000FEB504460E461746042500200090019052
:10C6D00002901348844202D0124884421DD1204661
:10C6E00022F07AFD0546C5B906208DF800000196B6
:10C6F00001208DF8090000208DF80A008DF808004F
:10C7000069462046FFF7E8FB054635B942F210724C
:10C710003946204622F0A6FC05462846FEBD00000C
:10C7200000FC064000000740FEB504460E461746D2
:10C73000042500200090019002901348844202D00A
:10C74000124884421ED1204622F046FD0546CDB94E
:10C7500007208DF800003004019001208DF80900B9
:10C7600000208DF80A008DF8080069462046FFF782
:10C77000B3FB054635B942F210723946204622F025
:10C7800071FC05462846FEBD00FC0640000007403F
:10C79000FEB505460E46042400200090019002904C
:10C7A0001548854202D01548854222D1284622F0FC
:10C7B00013FD0446ECB908208DF800004FF4D57045
:10C7C000019009208DF8090000208DF80A008DF8ED
:10C7D000080069462846FFF77FFB04464CB93146FE
:10C7E000284622F0DBFC04461CB93078AA2800D089
:10C7F00001242046FEBD000000FC0640000007406A
:10C80000FEB504460E461746042500200090019010
:10C8100002901248844202D0114884421CD1204622
:10C8200022F0DAFC0546BDB909208DF8000030047D
:10C83000019003208DF8090000208DF80A008DF882
:10C84000080069462046FFF747FB054625B93946EB
:10C85000204622F031FC05462846FEBD00FC06407D
:10C860000000074002460420084B9A4208D0084BBB
:10C870009A4205D0074B9A4202D0074B9A4204D104
:10C88000536861F3861353600020704700C0014075
:10C8900000C40140000002400004024002460020A3
:10C8A0001A4B9A4208D01A4B9A4205D0194B9A4219
:10C8B00002D0194B9A4227D1072923D2DFE801F091
:10C8C00004080C1014181E005369C3F3C0101AE0BA
:10C8D0005369C3F3401016E05369C3F3001012E02C
:10C8E0005369C3F3C0000EE05369C3F380000AE04C
:10C8F0005369C3F3400383F0010004E0536903F07C
:10C90000010000E000BF00BF7047000000C0014010
:10C9100000C40140000002400004024010B502467D
:10C920000420634B9A4208D0624B9A4205D0624B76
:10C930009A4202D0614B9A427DD100297BD00B7D77
:10C94000012B1ED10C78936964F3CF3393618C78FB
:10C95000936964F38E3393610C79936964F34D3377
:10C9600093614C78D36864F31653D360CC78D36862
:10C9700064F31A63D3604C79D36864F31E73D36095
:10C9800017E0936923F400439361936923F4804390
:10C990009361936923F400539361D36823F4E00314
:10C9A000D360D36823F0E063D360D36823F0E0431F
:10C9B000D3608B7CCBB98C79936964F34713936113
:10C9C000CC79D36864F30823D3600C7AD36864F31A
:10C9D0004923D3604C7AD36864F38A23D3608C7A7A
:10C9E000D36864F3CB23D36013E0936923F0E003AF
:10C9F0009361D36823F48073D360D36823F4007306
:10CA0000D360D36823F48063D360D36823F40063D6
:10CA1000D360CC7AD36864F38613D3604C7CD3683C
:10CA200064F30103D3600C7C936964F30C3393616A
:10CA3000CC7B936900E03AE064F30B2393618C7B39
:10CA4000936964F3840393610C7B936964F34103FA
:10CA500093614C7B936964F3000393618C7C53680E
:10CA600064F300035360CC7C536864F34103536068
:10CA70000C7D536864F3C30353604C7D536864F3C7
:10CA8000C71353608C7D536864F30C335360CC7DC3
:10CA9000536864F34D3353600C7E536864F3CF33B3
:10CAA00053604C7E536864F38E335360002010BD96
:10CAB00000C0014000C401400000024000040240E8
:10CAC00002460420074B9A4208D0074B9A4205D0F1
:10CAD000064B9A4202D0064B9A4201D111600020C7
:10CAE0007047000000C0014000C401400000024047
:10CAF000000402402DE9F041044600F01DF807460D
:10CB00000C480068A0B14FF0FF35AC4204D2281B9E
:10CB100008490968884201D22E4602E005480068AB
:10CB2000261800BF00F008F8C11B701E8142F9D31F
:10CB3000BDE8F081940001200148006870470000C2
:10CB40009800012010B500F04DF810BD03480068B2
:10CB500003490968084401490860704798000120AA
:10CB600094000120F0B50146012481B3B1F57A7F2C
:10CB70002DD84FF47A70B0FBF1F0164A10601648C9
:10CB80000068B0FBF1F2501EB0F1807F01D30120AC
:10CB90001BE0501E4FF0E023586158170F23002868
:10CBA00004DB1D072E0E0D4D2E5406E01D072F0E23
:10CBB0000B4D00F00F06361FAF5500BF00204FF0A1
:10CBC000E023986107201861002000B90024204666
:10CBD000F0BD0000940001204800002000E400E0C7
:10CBE00018ED00E010B5FFF7B1FF10BD70B50024DF
:10CBF0001320012100220023304D2D6805F001058E
:10CC00001DB12F4D2F4E356002E02F4D2D4E35605A
:10CC10002E4D2D7805F00704062C4CD2DFE804F0E9
:10CC200003080C11151A274D2D68294E356042E076
:10CC3000284D274E35603EE04FF40045244E3560C8
:10CC400039E0244D224E356035E04FF40045204E4A
:10CC5000356030E01D4DDA352D68C5F3C0131B4D2E
:10CC6000263DD5F80051C5F30820184DDA352D685A
:10CC7000290F164D263DD5F8005105F01F025BB96E
:10CC8000551C144EB6FBF5F5461C75434E1CB5FB02
:10CC9000F6F50F4E35600DE0012B0BD1094D2E68D6
:10CCA000551CB6FBF5F5461C75434E1CB5FBF6F559
:10CCB000074E356000BF00BF70BD00008406014014
:10CCC0000024F40044000020002D310126400540DE
:10CCD0004800002000127A0000B50448006840F4C3
:10CCE000700002490860FFF781FF00BD88ED00E099
:10CCF0002DE9F84304460E4615464FF0000800277C
:10CD0000002D7DD0FE48844201D106B900BF2069C4
:10CD1000009960F30001009120694108009861F3D7
:10CD20004100009020698108009861F38200009022
:10CD3000207C8DF8000020690109009861F307103C
:10CD400000902069010A009861F308200090206992
:10CD5000410A009861F3492000902069810A0098F7
:10CD600061F38A200090607C8DF801002069010B3E
:10CD7000009861F30C3000902069410B009861F33A
:10CD80004D3000902069810B009861F38E30009047
:10CD90002069C10B009861F3CF3000902069010C2D
:10CDA000009861F3104000902069410C009861F3F5
:10CDB000514000902069810C009861F392400090EE
:10CDC000A07C8DF802002069010D009861F31750D6
:10CDD00000902069010E009861F3186000902069AE
:10CDE000410E009861F3596000902069810E00980F
:10CDF00061F39A600090E07C8DF80300206900E008
:10CE00006BE2010F009861F31C7000902069410FE4
:10CE1000009861F35D7000902069810F009861F3C4
:10CE20009E7000902069C10F009861F3DF70009040
:10CE300026B900986FF30F00009002E0009880B2CE
:10CE400000900098216960F3000121610098410879
:10CE5000206961F34100206100988108206961F335
:10CE6000820020619DF8000020740098010920696B
:10CE700061F3071020610098010A206961F308201E
:10CE800020610098410A206961F3492020610098DF
:10CE9000810A206961F38A2020619DF80110617484
:10CEA0000098010B206961F30C3020610098410B60
:10CEB000206961F34D3020610098810B206961F396
:10CEC0008E3020610098C10B206961F3CF30206162
:10CED0000098010C206961F3104020610098410C1A
:10CEE000206961F3514020610098810C206961F351
:10CEF000924020619DF80210A1740098010D2069F4
:10CF000061F3175020610098010E206961F31860E9
:10CF100020610098410E206961F3596020610098FA
:10CF2000810E206961F39A6020619DF80310E1741D
:10CF30000098010F206961F31C7020610098410F77
:10CF4000206961F35D7020610098810F206961F3B1
:10CF50009E7020610098C10F206961F3DF7020612D
:10CF600001223146204623F029F807E038467F1C8D
:10CF7000B0F5A04F02D94FF0090803E000982169ED
:10CF80008842F3D100BF16B1012E7DD1D4E0E878FC
:10CF900010B101280CD105E06978009861F34920AF
:10CFA000009006E0A978009861F38A20009000E0E4
:10CFB00000BF00BF2978009861F307100090009827
:10CFC000216960F30001216100984108206961F343
:10CFD0004100206100988108206961F3820020618E
:10CFE0009DF80000207400980109206961F3071082
:10CFF00020610098010A206961F3082020610098EF
:10D00000410A206961F3492020610098810A206962
:10D0100061F38A2020619DF8011061740098010B72
:10D02000206961F30C3020610098410B206961F3A5
:10D030004D3020610098810B206961F38E302061B2
:10D040000098C10B206961F3CF3020610098010C7A
:10D05000206961F3104020610098410C206961F360
:10D06000514020610098810C206961F39240206159
:10D070009DF80210A1740098010D206961F317500A
:10D0800020610098010E00E025E1206961F318603D
:10D0900020610098410E206961F359602061009879
:10D0A000810E206961F39A6020619DF80310E1749C
:10D0B0000098010F206961F31C7020610098410FF6
:10D0C000206961F35D7020610098810F206961F330
:10D0D0009E7020610098C10F206961F3DF702061AC
:10D0E00001223146204622F069FFA888A060012273
:10D0F0003146204622F062FFE978206902E0000014
:10D100000040024061F308202061012231462046A0
:10D1100022F054FF002707E038467F1CB0F5A04FEF
:10D1200002D94FF0090805E0E8782169C1F3002130
:10D130008842F1D100BFCFE0E87810B101280CD1CE
:10D1400005E06978009861F35960009006E0A978DD
:10D15000009861F39A60009000E000BF00BF29785A
:10D16000009861F3175000900098216960F3000166
:10D17000216100984108206961F341002061009815
:10D180008108206961F3820020619DF8000020740D
:10D1900000980109206961F3071020610098010AD5
:10D1A000206961F3082020610098410A206961F339
:10D1B000492020610098810A206961F38A2020615A
:10D1C0009DF8011061740098010B206961F30C3027
:10D1D00020610098410B206961F34D302061009877
:10D1E000810B206961F38E3020610098C10B2069AA
:10D1F00061F3CF3020610098010C206961F3104089
:10D2000020610098410C206961F351402061009831
:10D21000810C206961F3924020619DF80210A17495
:10D220000098010D206961F3175020610098010EEC
:10D23000206961F3186020610098410E206961F354
:10D24000596020610098810E206961F39A60206125
:10D250009DF80310E1740098010F206961F31C70C0
:10D2600020610098410F206961F35D702061009892
:10D27000810F206961F39E7020610098C10F2069C1
:10D2800061F3DF70206101223146204622F096FED4
:10D29000A888E06001223146204622F08FFEE9781E
:10D2A000206961F31860206101223146204622F096
:10D2B00085FE002707E038467F1CB0F5A04F02D955
:10D2C0004FF0090805E0E8782169C1F30061884260
:10D2D000F1D100BF00E000BF01E04FF0040840467C
:10D2E000BDE8F8832DE9F04104460E4615464FF09F
:10D2F0000008002716B1012E32D118E0206965F32D
:10D300000000206101223146204622F057FE07E04E
:10D3100038467F1CB0F5A04F02D94FF0090804E051
:10D32000206900F00100A842F2D100BF19E0206995
:10D3300065F31040206101223146204622F03EFE76
:10D3400007E038467F1CB0F5A04F02D94FF009081E
:10D3500004E02069C0F30040A842F2D100BF00E021
:10D3600000BF00BF4046BDE8F0812DE9F041044612
:10D370000E4615464FF00008002716B1012E32D197
:10D3800018E0206965F382002061012231462046C1
:10D3900022F014FE07E038467F1CB0F5A04F02D9FA
:10D3A0004FF0090804E02069C0F38000A842F2D1E0
:10D3B00000BF19E0206965F39240206101223146E7
:10D3C000204622F0FBFD07E038467F1CB0F5A04F59
:10D3D00002D94FF0090804E02069C0F38040A84258
:10D3E000F2D100BF00E000BF00BF4046BDE8F081C1
:10D3F00001460420084A914205D0084A914202D0D1
:10D40000074A914207D1B1F8482022F010021032A9
:10D41000A1F84820002070470070014000480240F9
:10D42000004C024002460420114B9A4205D0114B99
:10D430009A4202D0104B9A4218D10020B1F5807F59
:10D4400003D0B1F5005F0ED106E0B2F8483023F406
:10D450008043A2F8483008E0B2F8483023F4007363
:10D46000A2F8483001E0042000BF00BF7047000070
:10D470000070014000480240004C02400146B1F8F3
:10D48000460070471CB50246042000230193009318
:10D490005F4B9A4205D05F4B9A4202D05E4B9A4254
:10D4A0007ED100297CD050234232D3800023938048
:10D4B0004FF6FF73138000231381423ABDF8043006
:10D4C00023F04003403301930C79BDF8043064F33A
:10D4D000030301938C78BDF8043064F34513019382
:10D4E0004C79BDF8043064F3C7130193CB78012B5A
:10D4F00001D1012400E00024BDF8043064F3CF33EF
:10D5000001938C79BDF8043064F34D330193CC79E9
:10D51000BDF8043064F3082301930C7ABDF80030A1
:10D5200064F3030300934C7ABDF8003064F30713EF
:10D530000093BDF800304832548863F303045480EC
:10D54000BDF800301C09538864F307135380BDF8FD
:10D5500000301C0A538864F30B235380BDF800305D
:10D560001C0B538864F30F335380BDF804301488C8
:10D5700063F303041480BDF804301C09138864F3BA
:10D5800004131380BDF804305C09138864F3451359
:10D590001380BDF804309C09138864F3861300E0FF
:10D5A00034E01380BDF80430DC09138864F3C7133A
:10D5B0001380BDF804301C0A138864F30823138019
:10D5C000BDF804305C0A138864F3492322F8483913
:10D5D00049239DF805409C54BDF804305C0B423251
:10D5E000D38864F34D33D380BDF804309C0BD388CB
:10D5F00064F38E33D380BDF80430DC0BD38864F33E
:10D60000CF33D3800B8822F8423900201CBD0000A4
:10D610000070014000480240004C024002460420D5
:10D62000174B9A4205D0174B9A4202D0164B9A429A
:10D6300024D119B332F8423F0B80D388C3F340138F
:10D640008B70D388DB0BCB70D38803F00F030B7187
:10D65000D388C3F3C0134B71D388C3F340338B71AA
:10D66000D388C3F30023CB71138903F00F030B722C
:10D670001389423AC3F303134B7200207047000032
:10D680000070014000480240004C02400246042065
:10D69000064B9A4205D0064B9A4202D0054B9A425D
:10D6A00002D1A2F842100020704700000070014033
:10D6B00000480240004C024001460420084A9142C2
:10D6C00005D0084A914202D0074A914206D1B1F8EA
:10D6D000482022F04002A1F84820002070470000B6
:10D6E0000070014000480240004C024010B5024664
:10D6F00004201B4B9A420ED01A4B9A420BD01A4B65
:10D700009A4208D0194B9A4205D0194B9A4202D03E
:10D71000184B9A4223D111B30C7852F8803F64F32E
:10D72000071313604C78136864F3820313608C78DA
:10D73000136864F3410342F88039094B9A4204D1DB
:10D74000CB78012B01D1062007E0CC78D2F88030CD
:10D7500064F3C303C2F8803000208B88536010BD8F
:10D76000005001400054014000580140005C01405D
:10D770000060014000640140024604200C4B9A42C4
:10D780000ED00C4B9A420BD00B4B9A4208D00B4B4D
:10D790009A4205D00A4B9A4202D00A4B9A4206D1CD
:10D7A000D2F8803061F30003C2F880300020704767
:10D7B000005001400054014000580140005C01400D
:10D7C000006001400064014030B503461446042067
:10D7D0000D4DAB420ED00D4DAB420BD00C4DAB42BC
:10D7E00008D00C4DAB4205D00B4DAB4202D00B4DD7
:10D7F000AB4208D103F5A07505EB8102156864F30F
:10D800000C351560002030BD00500140005401402F
:10D8100000580140005C014000600140006401408C
:10D820002DE9F04103460420DFF81CC1634513D005
:10D83000DFF818C163450FD0DFF814C163450BD082
:10D84000DFF810C1634507D0DFF80CC1634503D092
:10D85000DFF808C1634575D1002A73D003F5A07CB9
:10D860000CEB810492F80280D4F800C068F3010C3C
:10D87000C4F800C092F80380D4F800C068F3830CA9
:10D88000C4F800C092F80480D4F800C068F3051C06
:10D89000C4F800C092F80580D4F800C068F3871C73
:10D8A000C4F800C092F80680D4F800C068F3092CD0
:10D8B000C4F800C029B1022903D0042901D00629E7
:10D8C00029D103F1C00C0CEB810592F80980D5F841
:10D8D00000C068F3410CC5F800C092F80880D5F884
:10D8E00000C068F3820CC5F800C092F80780D5F834
:10D8F00000C068F3000CC5F800C001F1010C03F191
:10D90000400808EB8C06B2F80A80D6F800C068F32D
:10D910000F0CC6F800C003F1400C0CEB8106B2F806
:10D920000080D6F800C068F30F0CC6F800C003F5FD
:10D93000807C0CEB8107D7F800C02CF0010CC7F8F5
:10D9400000C00020BDE8F0810050014000540140BB
:10D9500000580140005C014000600140006401404B
:10D9600010B5024600200C4CA2420ED00B4CA24235
:10D970000BD00B4CA24208D00A4CA24205D00A4C54
:10D98000A24202D0094CA24205D102F1400404EBAC
:10D9900081031C68A0B210BD00500140005401403A
:10D9A00000580140005C01400060014000640140FB
:10D9B000014600200A4A91420ED00A4A91420BD0F9
:10D9C000094A914208D0094A914205D0084A914239
:10D9D00002D0084A914201D14A6890B270470000D3
:10D9E000005001400054014000580140005C0140DB
:10D9F000006001400064014010B502460420134B52
:10DA00009A420ED0124B9A420BD0124B9A4208D037
:10DA1000114B9A4205D0114B9A4202D0104B9A42B8
:10DA200012D189B10C7852F8843F64F3000313607B
:10DA30004C78136864F3410313608C78136864F3C3
:10DA4000820342F88439002010BD000000500140DC
:10DA50000054014000580140005C0140006001405A
:10DA60000064014010B503460420324CA3420ED09E
:10DA7000314CA3420BD0314CA34208D0304CA342CE
:10DA800005D0304CA34202D02F4CA34251D10A29D9
:10DA90004CD2DFE801F0050C131A21282F363D4443
:10DAA000D3F8904062F30004C3F890403FE0D3F80D
:10DAB000904062F34104C3F8904038E0D3F89040BE
:10DAC00062F38204C3F8904031E0D3F8904062F3EF
:10DAD000C304C3F890402AE0D3F8904062F30414E2
